{
  "contractName": "Faucet",
  "abi": [
    {
      "inputs": [
        {
          "internalType": "address",
          "name": "",
          "type": "address"
        }
      ],
      "name": "funders",
      "outputs": [
        {
          "internalType": "bool",
          "name": "",
          "type": "bool"
        }
      ],
      "stateMutability": "view",
      "type": "function",
      "constant": true
    },
    {
      "inputs": [
        {
          "internalType": "uint256",
          "name": "",
          "type": "uint256"
        }
      ],
      "name": "lutFunders",
      "outputs": [
        {
          "internalType": "address",
          "name": "",
          "type": "address"
        }
      ],
      "stateMutability": "view",
      "type": "function",
      "constant": true
    },
    {
      "inputs": [],
      "name": "numOfFunders",
      "outputs": [
        {
          "internalType": "uint256",
          "name": "",
          "type": "uint256"
        }
      ],
      "stateMutability": "view",
      "type": "function",
      "constant": true
    },
    {
      "stateMutability": "payable",
      "type": "receive",
      "payable": true
    },
    {
      "inputs": [],
      "name": "addFunds",
      "outputs": [],
      "stateMutability": "payable",
      "type": "function",
      "payable": true
    },
    {
      "inputs": [
        {
          "internalType": "uint256",
          "name": "withdrawAmount",
          "type": "uint256"
        }
      ],
      "name": "withdraw",
      "outputs": [],
      "stateMutability": "nonpayable",
      "type": "function"
    },
    {
      "inputs": [
        {
          "internalType": "uint256",
          "name": "index",
          "type": "uint256"
        }
      ],
      "name": "getFundersIndex",
      "outputs": [
        {
          "internalType": "address",
          "name": "",
          "type": "address"
        }
      ],
      "stateMutability": "view",
      "type": "function",
      "constant": true
    },
    {
      "inputs": [],
      "name": "getAllFunders",
      "outputs": [
        {
          "internalType": "address[]",
          "name": "",
          "type": "address[]"
        }
      ],
      "stateMutability": "view",
      "type": "function",
      "constant": true
    }
  ],
  "bytecode": "0x608060405234801561001057600080fd5b506108fc806100206000396000f3fe6080604052600436106100745760003560e01c80632e1a7d4d1161004e5780632e1a7d4d146101375780636fbbb55d14610160578063a26759cb1461018b578063af7f2c9b146101955761007b565b8063031b3677146100805780631f8947ea146100bd5780632e1472de146100fa5761007b565b3661007b57005b600080fd5b34801561008c57600080fd5b506100a760048036038101906100a29190610554565b6101c0565b6040516100b4919061059c565b60405180910390f35b3480156100c957600080fd5b506100e460048036038101906100df91906105ed565b6101e0565b6040516100f19190610629565b60405180910390f35b34801561010657600080fd5b50610121600480360381019061011c91906105ed565b610213565b60405161012e9190610629565b60405180910390f35b34801561014357600080fd5b5061015e600480360381019061015991906105ed565b610250565b005b34801561016c57600080fd5b506101756102e7565b6040516101829190610702565b60405180910390f35b6101936103e0565b005b3480156101a157600080fd5b506101aa6104eb565b6040516101b79190610733565b60405180910390f35b60026020528060005260406000206000915054906101000a900460ff1681565b60016020528060005260406000206000915054906101000a900473ffffffffffffffffffffffffffffffffffffffff1681565b60006001600083815260200190815260200160002060009054906101000a900473ffffffffffffffffffffffffffffffffffffffff169050919050565b80670de0b6b3a764000081111561029c576040517f08c379a0000000000000000000000000000000000000000000000000000000008152600401610293906107d1565b60405180910390fd5b3373ffffffffffffffffffffffffffffffffffffffff166108fc839081150290604051600060405180830381858888f193505050501580156102e2573d6000803e3d6000fd5b505050565b60606000805467ffffffffffffffff811115610306576103056107f1565b5b6040519080825280602002602001820160405280156103345781602001602082028036833780820191505090505b50905060005b6000548110156103d8576001600082815260200190815260200160002060009054906101000a900473ffffffffffffffffffffffffffffffffffffffff1682828151811061038b5761038a610820565b5b602002602001019073ffffffffffffffffffffffffffffffffffffffff16908173ffffffffffffffffffffffffffffffffffffffff168152505080806103d09061087e565b91505061033a565b508091505090565b6000339050600260008273ffffffffffffffffffffffffffffffffffffffff1673ffffffffffffffffffffffffffffffffffffffff16815260200190815260200160002060009054906101000a900460ff166104e8576000805490506001600260008473ffffffffffffffffffffffffffffffffffffffff1673ffffffffffffffffffffffffffffffffffffffff16815260200190815260200160002060006101000a81548160ff021916908315150217905550816001600083815260200190815260200160002060006101000a81548173ffffffffffffffffffffffffffffffffffffffff021916908373ffffffffffffffffffffffffffffffffffffffff160217905550505b50565b60005481565b600080fd5b600073ffffffffffffffffffffffffffffffffffffffff82169050919050565b6000610521826104f6565b9050919050565b61053181610516565b811461053c57600080fd5b50565b60008135905061054e81610528565b92915050565b60006020828403121561056a576105696104f1565b5b60006105788482850161053f565b91505092915050565b60008115159050919050565b61059681610581565b82525050565b60006020820190506105b1600083018461058d565b92915050565b6000819050919050565b6105ca816105b7565b81146105d557600080fd5b50565b6000813590506105e7816105c1565b92915050565b600060208284031215610603576106026104f1565b5b6000610611848285016105d8565b91505092915050565b61062381610516565b82525050565b600060208201905061063e600083018461061a565b92915050565b600081519050919050565b600082825260208201905092915050565b6000819050602082019050919050565b61067981610516565b82525050565b600061068b8383610670565b60208301905092915050565b6000602082019050919050565b60006106af82610644565b6106b9818561064f565b93506106c483610660565b8060005b838110156106f55781516106dc888261067f565b97506106e783610697565b9250506001810190506106c8565b5085935050505092915050565b6000602082019050818103600083015261071c81846106a4565b905092915050565b61072d816105b7565b82525050565b60006020820190506107486000830184610724565b92915050565b600082825260208201905092915050565b7f436f756c64206e6f74207769746864726177206d6f7265207468616e2031455460008201527f4820000000000000000000000000000000000000000000000000000000000000602082015250565b60006107bb60228361074e565b91506107c68261075f565b604082019050919050565b600060208201905081810360008301526107ea816107ae565b9050919050565b7f4e487b7100000000000000000000000000000000000000000000000000000000600052604160045260246000fd5b7f4e487b7100000000000000000000000000000000000000000000000000000000600052603260045260246000fd5b7f4e487b7100000000000000000000000000000000000000000000000000000000600052601160045260246000fd5b6000610889826105b7565b91507fffffffffffffffffffffffffffffffffffffffffffffffffffffffffffffffff82036108bb576108ba61084f565b5b60018201905091905056fea26469706673582212200b8fb43c3dab73c04858cb8c68a5c2276671d2f918f5d76035a53a3bb91168ea64736f6c63430008130033",
  "immutableReferences": {},
  "source": "pragma solidity >=0.4.22  <0.9.0;\r\n\r\ncontract Faucet {\r\n\r\n  uint256 public numOfFunders;\r\n  mapping(uint256 => address) public lutFunders;\r\n  mapping(address => bool) public funders;\r\n  receive() external payable {}\r\n\r\n  //Donate(addFunds)\r\n  function addFunds() external payable {\r\n    address funder = msg.sender;\r\n\r\n    if(!funders[funder]) {\r\n      uint256 index = numOfFunders;\r\n      funders[funder] = true;\r\n      lutFunders[index] = funder;\r\n    }\r\n  }\r\n  //Rt(Withdraw)\r\n  function withdraw(uint256 withdrawAmount) \r\n    external \r\n    limitWithdraw(withdrawAmount)\r\n  {\r\n    payable(msg.sender).transfer(withdrawAmount);\r\n  }\r\n  //Hin th s ngi  donate(addressIndex)\r\n  function getFundersIndex(uint256 index) external view returns (address) {\r\n    return lutFunders[index];\r\n  }\r\n  //Ly ra s ngi  donate(getFunders)\r\n  function getAllFunders() external view returns (address[] memory) {\r\n    address[] memory _funders = new address[](numOfFunders);\r\n\r\n    for(uint256 i = 0; i < numOfFunders;i++) {\r\n      _funders[i] = lutFunders[i];\r\n    }\r\n    return _funders;\r\n  }\r\n\r\n  //so tien gioi han cho rut\r\n  modifier limitWithdraw(uint256 withdrawAmount) {\r\n    \r\n    require(withdrawAmount <= 1000000000000000000, \"Could not withdraw more than 1ETH \");\r\n    _;\r\n  }\r\n}",
  "sourcePath": "D:\\thangstudyJvs\\faucet-final\\contracts\\faucet.sol",
  "compiler": {
    "name": "solc",
    "version": "0.8.19+commit.7dd6d404.Emscripten.clang"
  },
  "schemaVersion": "3.4.13",
  "updatedAt": "2023-05-06T11:21:45.760Z",
  "networkType": "ethereum",
  "devdoc": {
    "kind": "dev",
    "methods": {},
    "version": 1
  },
  "userdoc": {
    "kind": "user",
    "methods": {},
    "version": 1
  }
}